:100000000C9461000C9473000C9473000C947300B6
:100010000C9473000C9473000C9473000C94730094
:100020000C9473000C9473000C9473000C94730084
:100030000C9473000C9473000C9473000C94730074
:100040000C94F6000C9473000C9473000C947300E1
:100050000C9473000C9473000C9473000C94730054
:100060000C9473000C94730000000000240027001F
:100070002A0000000000250028002B0000000000DE
:1000800023002600290004040404040404040202DA
:100090000202020203030303030301020408102007
:1000A0004080010204081020010204081020000012
:1000B0000008000201000003040700000000000027
:1000C000000011241FBECFEFD8E0DEBFCDBF21E07E
:1000D000A0E0B1E001C01D92A930B207E1F70E9493
:1000E00040010C943F020C940000833081F028F40E
:1000F000813099F08230A1F008958730A9F08830DE
:10010000B9F08430D1F4809180008F7D03C080915C
:1001100080008F7780938000089584B58F7702C028
:1001200084B58F7D84BD08958091B0008F7703C022
:100130008091B0008F7D8093B0000895CF93DF93BE
:10014000282F30E0F901E255FF4F8491F901E6567E
:10015000FF4FD491F901EA57FF4FC491CC2391F09E
:1001600081110E947500EC2FF0E0EE0FFF1FE458A4
:10017000FF4FA591B491EC91ED2381E090E021F443
:1001800080E002C080E090E0DF91CF9108951F935E
:10019000CF93DF93282F30E0F901E255FF4F849190
:1001A000F901E656FF4FD491F901EA57FF4FC49188
:1001B000CC23C1F0162F81110E947500EC2FF0E0C6
:1001C000EE0FFF1FEE58FF4FA591B4919FB7F89423
:1001D000111104C08C91D095D82302C0EC91DE2B74
:1001E000DC939FBFDF91CF911F9108951F920F92D3
:1001F0000FB60F9211242F933F938F939F93AF933A
:10020000BF938091050190910601A0910701B091E3
:1002100008013091040123E0230F2D3720F40196CB
:10022000A11DB11D05C026E8230F0296A11DB11D19
:10023000209304018093050190930601A093070188
:10024000B09308018091000190910101A0910201F9
:10025000B09103010196A11DB11D809300019093FF
:100260000101A0930201B0930301BF91AF919F914F
:100270008F913F912F910F900FBE0F901F90189567
:10028000789484B5826084BD84B5816084BD85B571
:10029000826085BD85B5816085BD80916E0081607D
:1002A00080936E0010928100809181008260809323
:1002B0008100809181008160809381008091800025
:1002C0008160809380008091B10084608093B10050
:1002D0008091B00081608093B00080917A0084604A
:1002E00080937A0080917A00826080937A00809176
:1002F0007A00816080937A0080917A008068809390
:100300007A001092C1004AE050E0FA01E656FF4F31
:100310002491FA01EA57FF4F84918823C1F090E0BD
:10032000880F991FFC01E859FF4FC591D491FC013A
:10033000EE58FF4FA591B4919FB7F8948881E22FB2
:10034000E0958E2388838C91E823EC939FBF4F5FC9
:100350005F4F4D305105C9F621E030E0F901E65616
:10036000FF4F4491F901EA57FF4F8491882399F098
:1003700090E0880F991FFC01E859FF4FA591B491B7
:10038000FC01EE58FF4F859194918FB7F894EC9152
:10039000E42BEC938FBF2F5F3F4F2A303105F1F6EE
:1003A00000E010E08AE00E949E00019711F560E0F5
:1003B00081E00E94C70061E082E00E94C70060E027
:1003C00083E00E94C70061E084E00E94C70061E012
:1003D00085E00E94C70061E086E00E94C70060E0FF
:1003E00087E00E94C70060E088E00E94C70060E0EC
:1003F00026C08BE00E949E00019729F561E081E014
:100400000E94C70061E082E00E94C70061E083E0D3
:100410000E94C70061E084E00E94C70060E085E0C0
:100420000E94C70061E086E00E94C70061E087E0AB
:100430000E94C70061E088E00E94C70061E089E097
:100440000E94C70015C08CE00E949E00019781F4B5
:10045000C2E061E08C2F0E94C700CE5FCA30C9F7AE
:10046000C1E060E08C2F0E94C700CE5FCB30C9F79F
:100470000115110509F496CF0E94000093CFF8945E
:02048000FFCFAC
:00000001FF
